{
    "_format": "hh-sol-artifact-1",
    "contractName": "CelebsNFT",
    "sourceName": "contracts/CelebsNFT.sol",
    "abi": [
        {
            "inputs": [],
            "stateMutability": "nonpayable",
            "type": "constructor"
        },
        {
            "anonymous": false,
            "inputs": [
                {
                    "indexed": true,
                    "internalType": "address",
                    "name": "owner",
                    "type": "address"
                },
                {
                    "indexed": true,
                    "internalType": "address",
                    "name": "approved",
                    "type": "address"
                },
                {
                    "indexed": true,
                    "internalType": "uint256",
                    "name": "tokenId",
                    "type": "uint256"
                }
            ],
            "name": "Approval",
            "type": "event"
        },
        {
            "anonymous": false,
            "inputs": [
                {
                    "indexed": true,
                    "internalType": "address",
                    "name": "owner",
                    "type": "address"
                },
                {
                    "indexed": true,
                    "internalType": "address",
                    "name": "operator",
                    "type": "address"
                },
                {
                    "indexed": false,
                    "internalType": "bool",
                    "name": "approved",
                    "type": "bool"
                }
            ],
            "name": "ApprovalForAll",
            "type": "event"
        },
        {
            "anonymous": false,
            "inputs": [
                {
                    "indexed": false,
                    "internalType": "address",
                    "name": "sender",
                    "type": "address"
                },
                {
                    "indexed": false,
                    "internalType": "uint256",
                    "name": "tokenId",
                    "type": "uint256"
                }
            ],
            "name": "NewEpicNFTMinted",
            "type": "event"
        },
        {
            "anonymous": false,
            "inputs": [
                {
                    "indexed": true,
                    "internalType": "address",
                    "name": "from",
                    "type": "address"
                },
                {
                    "indexed": true,
                    "internalType": "address",
                    "name": "to",
                    "type": "address"
                },
                {
                    "indexed": true,
                    "internalType": "uint256",
                    "name": "tokenId",
                    "type": "uint256"
                }
            ],
            "name": "Transfer",
            "type": "event"
        },
        {
            "inputs": [
                {
                    "internalType": "address",
                    "name": "to",
                    "type": "address"
                },
                {
                    "internalType": "uint256",
                    "name": "tokenId",
                    "type": "uint256"
                }
            ],
            "name": "approve",
            "outputs": [],
            "stateMutability": "nonpayable",
            "type": "function"
        },
        {
            "inputs": [
                {
                    "internalType": "address",
                    "name": "owner",
                    "type": "address"
                }
            ],
            "name": "balanceOf",
            "outputs": [
                {
                    "internalType": "uint256",
                    "name": "",
                    "type": "uint256"
                }
            ],
            "stateMutability": "view",
            "type": "function"
        },
        {
            "inputs": [
                {
                    "internalType": "uint256",
                    "name": "tokenId",
                    "type": "uint256"
                }
            ],
            "name": "getApproved",
            "outputs": [
                {
                    "internalType": "address",
                    "name": "",
                    "type": "address"
                }
            ],
            "stateMutability": "view",
            "type": "function"
        },
        {
            "inputs": [
                {
                    "internalType": "address",
                    "name": "owner",
                    "type": "address"
                },
                {
                    "internalType": "address",
                    "name": "operator",
                    "type": "address"
                }
            ],
            "name": "isApprovedForAll",
            "outputs": [
                {
                    "internalType": "bool",
                    "name": "",
                    "type": "bool"
                }
            ],
            "stateMutability": "view",
            "type": "function"
        },
        {
            "inputs": [],
            "name": "makeNFT",
            "outputs": [],
            "stateMutability": "nonpayable",
            "type": "function"
        },
        {
            "inputs": [],
            "name": "name",
            "outputs": [
                {
                    "internalType": "string",
                    "name": "",
                    "type": "string"
                }
            ],
            "stateMutability": "view",
            "type": "function"
        },
        {
            "inputs": [
                {
                    "internalType": "uint256",
                    "name": "tokenId",
                    "type": "uint256"
                }
            ],
            "name": "ownerOf",
            "outputs": [
                {
                    "internalType": "address",
                    "name": "",
                    "type": "address"
                }
            ],
            "stateMutability": "view",
            "type": "function"
        },
        {
            "inputs": [
                {
                    "internalType": "uint256",
                    "name": "_tokenId",
                    "type": "uint256"
                }
            ],
            "name": "pickRandomColor",
            "outputs": [
                {
                    "internalType": "string",
                    "name": "",
                    "type": "string"
                }
            ],
            "stateMutability": "view",
            "type": "function"
        },
        {
            "inputs": [
                {
                    "internalType": "uint256",
                    "name": "_tokenId",
                    "type": "uint256"
                }
            ],
            "name": "pickRandomFirstWord",
            "outputs": [
                {
                    "internalType": "string",
                    "name": "",
                    "type": "string"
                }
            ],
            "stateMutability": "view",
            "type": "function"
        },
        {
            "inputs": [
                {
                    "internalType": "uint256",
                    "name": "_tokenId",
                    "type": "uint256"
                }
            ],
            "name": "pickRandomSecondWord",
            "outputs": [
                {
                    "internalType": "string",
                    "name": "",
                    "type": "string"
                }
            ],
            "stateMutability": "view",
            "type": "function"
        },
        {
            "inputs": [
                {
                    "internalType": "uint256",
                    "name": "_tokenId",
                    "type": "uint256"
                }
            ],
            "name": "pickRandomThirdWord",
            "outputs": [
                {
                    "internalType": "string",
                    "name": "",
                    "type": "string"
                }
            ],
            "stateMutability": "view",
            "type": "function"
        },
        {
            "inputs": [
                {
                    "internalType": "address",
                    "name": "from",
                    "type": "address"
                },
                {
                    "internalType": "address",
                    "name": "to",
                    "type": "address"
                },
                {
                    "internalType": "uint256",
                    "name": "tokenId",
                    "type": "uint256"
                }
            ],
            "name": "safeTransferFrom",
            "outputs": [],
            "stateMutability": "nonpayable",
            "type": "function"
        },
        {
            "inputs": [
                {
                    "internalType": "address",
                    "name": "from",
                    "type": "address"
                },
                {
                    "internalType": "address",
                    "name": "to",
                    "type": "address"
                },
                {
                    "internalType": "uint256",
                    "name": "tokenId",
                    "type": "uint256"
                },
                {
                    "internalType": "bytes",
                    "name": "data",
                    "type": "bytes"
                }
            ],
            "name": "safeTransferFrom",
            "outputs": [],
            "stateMutability": "nonpayable",
            "type": "function"
        },
        {
            "inputs": [
                {
                    "internalType": "address",
                    "name": "operator",
                    "type": "address"
                },
                {
                    "internalType": "bool",
                    "name": "approved",
                    "type": "bool"
                }
            ],
            "name": "setApprovalForAll",
            "outputs": [],
            "stateMutability": "nonpayable",
            "type": "function"
        },
        {
            "inputs": [
                {
                    "internalType": "bytes4",
                    "name": "interfaceId",
                    "type": "bytes4"
                }
            ],
            "name": "supportsInterface",
            "outputs": [
                {
                    "internalType": "bool",
                    "name": "",
                    "type": "bool"
                }
            ],
            "stateMutability": "view",
            "type": "function"
        },
        {
            "inputs": [],
            "name": "symbol",
            "outputs": [
                {
                    "internalType": "string",
                    "name": "",
                    "type": "string"
                }
            ],
            "stateMutability": "view",
            "type": "function"
        },
        {
            "inputs": [
                {
                    "internalType": "uint256",
                    "name": "tokenId",
                    "type": "uint256"
                }
            ],
            "name": "tokenURI",
            "outputs": [
                {
                    "internalType": "string",
                    "name": "",
                    "type": "string"
                }
            ],
            "stateMutability": "view",
            "type": "function"
        },
        {
            "inputs": [
                {
                    "internalType": "address",
                    "name": "from",
                    "type": "address"
                },
                {
                    "internalType": "address",
                    "name": "to",
                    "type": "address"
                },
                {
                    "internalType": "uint256",
                    "name": "tokenId",
                    "type": "uint256"
                }
            ],
            "name": "transferFrom",
            "outputs": [],
            "stateMutability": "nonpayable",
            "type": "function"
        }
    ],
    "bytecode": "0x6080604052604051806101600160405280610140815260200162005a6a610140913960089081620000319190620017d9565b5060405180606001604052806038815260200162005f7c60389139600990816200005c9190620017d9565b506040518061040001604052806103d2815260200162005baa6103d29139600a90816200008a9190620017d9565b5060405180608001604052806040518060400160405280600281526020017f492000000000000000000000000000000000000000000000000000000000000081525081526020016040518060400160405280600481526020017f596f75200000000000000000000000000000000000000000000000000000000081525081526020016040518060400160405280600381526020017f576520000000000000000000000000000000000000000000000000000000000081525081526020016040518060400160405280600581526020017f5468657920000000000000000000000000000000000000000000000000000000815250815250600b9060046200019292919062001352565b50604051806103a001604052806040518060400160405280600581526020017f6c6f76652000000000000000000000000000000000000000000000000000000081525081526020016040518060400160405280600581526020017f626974652000000000000000000000000000000000000000000000000000000081525081526020016040518060400160405280600581526020017f6b6973732000000000000000000000000000000000000000000000000000000081525081526020016040518060400160405280600581526020017f6c69636b2000000000000000000000000000000000000000000000000000000081525081526020016040518060400160405280600481526020017f687567200000000000000000000000000000000000000000000000000000000081525081526020016040518060400160405280600681526020017f736d61636b20000000000000000000000000000000000000000000000000000081525081526020016040518060400160405280600781526020017f636172657373200000000000000000000000000000000000000000000000000081525081526020016040518060400160405280600781526020017f637564646c65200000000000000000000000000000000000000000000000000081525081526020016040518060400160405280600581526020017f6b69636b2000000000000000000000000000000000000000000000000000000081525081526020016040518060400160405280600481526020017f737079200000000000000000000000000000000000000000000000000000000081525081526020016040518060400160405280600581526020017f656e76792000000000000000000000000000000000000000000000000000000081525081526020016040518060400160405280600481526020017f656174200000000000000000000000000000000000000000000000000000000081525081526020016040518060400160405280600681526020017f666967687420000000000000000000000000000000000000000000000000000081525081526020016040518060400160405280600581526020017f6c696b652000000000000000000000000000000000000000000000000000000081525081526020016040518060400160405280600981526020017f636f6d706c65746520000000000000000000000000000000000000000000000081525081526020016040518060400160405280600681526020017f737475647920000000000000000000000000000000000000000000000000000081525081526020016040518060400160405280600581526020017f647261772000000000000000000000000000000000000000000000000000000081525081526020016040518060400160405280600681526020017f656e74657220000000000000000000000000000000000000000000000000000081525081526020016040518060400160405280600881526020017f66617274206f6e2000000000000000000000000000000000000000000000000081525081526020016040518060400160405280600981526020017f73746f6d70206f6e20000000000000000000000000000000000000000000000081525081526020016040518060400160405280600781526020017f736974206f6e200000000000000000000000000000000000000000000000000081525081526020016040518060400160405280600981526020017f72656d656d62657220000000000000000000000000000000000000000000000081525081526020016040518060400160405280600881526020017f6469736c696b652000000000000000000000000000000000000000000000000081525081526020016040518060400160405280600681526020017f646f75627420000000000000000000000000000000000000000000000000000081525081526020016040518060400160405280600581526020017f6665656c2000000000000000000000000000000000000000000000000000000081525081526020016040518060400160405280600681526020017f736d656c6c20000000000000000000000000000000000000000000000000000081525081526020016040518060400160405280600b81526020017f756e6465727374616e642000000000000000000000000000000000000000000081525081526020016040518060400160405280600b81526020017f6f776e20706c656173652000000000000000000000000000000000000000000081525081526020016040518060400160405280600881526020017f70726f6d69736520000000000000000000000000000000000000000000000000815250815250600c90601d6200085e929190620013b2565b506040518060c001604052806040518060400160405280600381526020017f796f75000000000000000000000000000000000000000000000000000000000081525081526020016040518060400160405280600281526020017f6d6500000000000000000000000000000000000000000000000000000000000081525081526020016040518060400160405280600281526020017f757300000000000000000000000000000000000000000000000000000000000081525081526020016040518060400160405280600481526020017f7468656d0000000000000000000000000000000000000000000000000000000081525081526020016040518060400160405280600381526020017f686572000000000000000000000000000000000000000000000000000000000081525081526020016040518060400160405280600381526020017f68696d0000000000000000000000000000000000000000000000000000000000815250815250600d906006620009dc92919062001412565b506040518061042001604052806040518060400160405280600381526020017f726564000000000000000000000000000000000000000000000000000000000081525081526020016040518060400160405280600481526020017f626c75650000000000000000000000000000000000000000000000000000000081525081526020016040518060400160405280600681526020017f79656c6c6f77000000000000000000000000000000000000000000000000000081525081526020016040518060400160405280600681526020017f6f72616e6765000000000000000000000000000000000000000000000000000081525081526020016040518060400160405280600581526020017f677265656e00000000000000000000000000000000000000000000000000000081525081526020016040518060400160405280600481526020017f70696e6b0000000000000000000000000000000000000000000000000000000081525081526020016040518060400160405280600581526020017f626c61636b00000000000000000000000000000000000000000000000000000081525081526020016040518060400160405280600481526020017f677261790000000000000000000000000000000000000000000000000000000081525081526020016040518060400160405280600a81526020017f617175616d6172696e650000000000000000000000000000000000000000000081525081526020016040518060400160405280600581526020017f617a75726500000000000000000000000000000000000000000000000000000081525081526020016040518060400160405280600581526020017f62726f776e00000000000000000000000000000000000000000000000000000081525081526020016040518060400160405280600981526020017f6361646574626c7565000000000000000000000000000000000000000000000081525081526020016040518060400160405280600981526020017f63686f636f6c617465000000000000000000000000000000000000000000000081525081526020016040518060400160405280600a81526020017f636861727472657573650000000000000000000000000000000000000000000081525081526020016040518060400160405280600581526020017f636f72616c00000000000000000000000000000000000000000000000000000081525081526020016040518060400160405280600781526020017f6372696d736f6e0000000000000000000000000000000000000000000000000081525081526020016040518060400160405280600881526020017f6461726b626c756500000000000000000000000000000000000000000000000081525081526020016040518060400160405280600881526020017f6461726b6379616e00000000000000000000000000000000000000000000000081525081526020016040518060400160405280600481526020017f6379616e0000000000000000000000000000000000000000000000000000000081525081526020016040518060400160405280600b81526020017f6461726b6d616e6765746100000000000000000000000000000000000000000081525081526020016040518060400160405280600a81526020017f6461726b73616c6d6f6e0000000000000000000000000000000000000000000081525081526020016040518060400160405280600a81526020017f6461726b76696f6c65740000000000000000000000000000000000000000000081525081526020016040518060400160405280600781526020017f64696d677261790000000000000000000000000000000000000000000000000081525081526020016040518060400160405280600781526020017f686f7470696e6b0000000000000000000000000000000000000000000000000081525081526020016040518060400160405280600681526020017f696e6469676f000000000000000000000000000000000000000000000000000081525081526020016040518060400160405280600581526020017f69766f727900000000000000000000000000000000000000000000000000000081525081526020016040518060400160405280600581526020017f6b68616b6900000000000000000000000000000000000000000000000000000081525081526020016040518060400160405280600981526020017f6c61776e677265656e000000000000000000000000000000000000000000000081525081526020016040518060400160405280600a81526020017f6c69676874636f72616c0000000000000000000000000000000000000000000081525081526020016040518060400160405280600a81526020017f6c69676874677265656e0000000000000000000000000000000000000000000081525081526020016040518060400160405280600c81526020017f6c69676874736b79626c7565000000000000000000000000000000000000000081525081526020016040518060400160405280600481526020017f6e6176790000000000000000000000000000000000000000000000000000000081525081526020016040518060400160405280600681526020017f76696f6c65740000000000000000000000000000000000000000000000000000815250815250600e9060216200119492919062001472565b50348015620011a257600080fd5b506040518060400160405280600a81526020017f537175617265734e4654000000000000000000000000000000000000000000008152506040518060400160405280600481526020017f534e4654000000000000000000000000000000000000000000000000000000008152508160009081620012209190620017d9565b508060019081620012329190620017d9565b505050620012806040518060400160405280601e81526020017f54686973206973206d79204e465420636f6e74726163742e20576f61682100008152506200128660201b620014f81760201c565b62001973565b62001326816040516024016200129d91906200194f565b6040516020818303038152906040527f41304fac000000000000000000000000000000000000000000000000000000007bffffffffffffffffffffffffffffffffffffffffffffffffffffffff19166020820180517bffffffffffffffffffffffffffffffffffffffffffffffffffffffff83818316178352505050506200132960201b60201c565b50565b60008151905060006a636f6e736f6c652e6c6f679050602083016000808483855afa5050505050565b8280548282559060005260206000209081019282156200139f579160200282015b828111156200139e5782518290816200138d9190620017d9565b509160200191906001019062001373565b5b509050620013ae9190620014d2565b5090565b828054828255906000526020600020908101928215620013ff579160200282015b82811115620013fe578251829081620013ed9190620017d9565b5091602001919060010190620013d3565b5b5090506200140e9190620014d2565b5090565b8280548282559060005260206000209081019282156200145f579160200282015b828111156200145e5782518290816200144d9190620017d9565b509160200191906001019062001433565b5b5090506200146e9190620014d2565b5090565b828054828255906000526020600020908101928215620014bf579160200282015b82811115620014be578251829081620014ad9190620017d9565b509160200191906001019062001493565b5b509050620014ce9190620014d2565b5090565b5b80821115620014f65760008181620014ec9190620014fa565b50600101620014d3565b5090565b5080546200150890620015c8565b6000825580601f106200151c57506200153d565b601f0160209004906000526020600020908101906200153c919062001540565b5b50565b5b808211156200155b57600081600090555060010162001541565b5090565b600081519050919050565b7f4e487b7100000000000000000000000000000000000000000000000000000000600052604160045260246000fd5b7f4e487b7100000000000000000000000000000000000000000000000000000000600052602260045260246000fd5b60006002820490506001821680620015e157607f821691505b602082108103620015f757620015f662001599565b5b50919050565b60008190508160005260206000209050919050565b60006020601f8301049050919050565b600082821b905092915050565b600060088302620016617fffffffffffffffffffffffffffffffffffffffffffffffffffffffffffffffff8262001622565b6200166d868362001622565b95508019841693508086168417925050509392505050565b6000819050919050565b6000819050919050565b6000620016ba620016b4620016ae8462001685565b6200168f565b62001685565b9050919050565b6000819050919050565b620016d68362001699565b620016ee620016e582620016c1565b8484546200162f565b825550505050565b600090565b62001705620016f6565b62001712818484620016cb565b505050565b5b818110156200173a576200172e600082620016fb565b60018101905062001718565b5050565b601f82111562001789576200175381620015fd565b6200175e8462001612565b810160208510156200176e578190505b620017866200177d8562001612565b83018262001717565b50505b505050565b600082821c905092915050565b6000620017ae600019846008026200178e565b1980831691505092915050565b6000620017c983836200179b565b9150826002028217905092915050565b620017e4826200155f565b67ffffffffffffffff8111156200180057620017ff6200156a565b5b6200180c8254620015c8565b620018198282856200173e565b600060209050601f8311600181146200185157600084156200183c578287015190505b620018488582620017bb565b865550620018b8565b601f1984166200186186620015fd565b60005b828110156200188b5784890151825560018201915060208501945060208101905062001864565b86831015620018ab5784890151620018a7601f8916826200179b565b8355505b6001600288020188555050505b505050505050565b600082825260208201905092915050565b60005b83811015620018f1578082015181840152602081019050620018d4565b60008484015250505050565b6000601f19601f8301169050919050565b60006200191b826200155f565b620019278185620018c0565b935062001939818560208601620018d1565b6200194481620018fd565b840191505092915050565b600060208201905081810360008301526200196b81846200190e565b905092915050565b6140e780620019836000396000f3fe608060405234801561001057600080fd5b50600436106101165760003560e01c806370a08231116100a2578063b187301f11610071578063b187301f146102f1578063b88d4fde14610321578063c575757a1461033d578063c87b56dd1461036d578063e985e9c51461039d57610116565b806370a082311461027d57806395d89b41146102ad578063a22cb465146102cb578063b036b4bd146102e757610116565b806323b872dd116100e957806323b872dd146101b55780632de38d68146101d157806342842e0e14610201578063514dc8c61461021d5780636352211e1461024d57610116565b806301ffc9a71461011b57806306fdde031461014b578063081812fc14610169578063095ea7b314610199575b600080fd5b610135600480360381019061013091906128e5565b6103cd565b604051610142919061292d565b60405180910390f35b6101536104af565b60405161016091906129d8565b60405180910390f35b610183600480360381019061017e9190612a30565b610541565b6040516101909190612a9e565b60405180910390f35b6101b360048036038101906101ae9190612ae5565b610587565b005b6101cf60048036038101906101ca9190612b25565b61069e565b005b6101eb60048036038101906101e69190612a30565b6106fe565b6040516101f891906129d8565b60405180910390f35b61021b60048036038101906102169190612b25565b6108dc565b005b61023760048036038101906102329190612a30565b6108fc565b60405161024491906129d8565b60405180910390f35b61026760048036038101906102629190612a30565b610ada565b6040516102749190612a9e565b60405180910390f35b61029760048036038101906102929190612b78565b610b60565b6040516102a49190612bb4565b60405180910390f35b6102b5610c17565b6040516102c291906129d8565b60405180910390f35b6102e560048036038101906102e09190612bfb565b610ca9565b005b6102ef610cbf565b005b61030b60048036038101906103069190612a30565b610f34565b60405161031891906129d8565b60405180910390f35b61033b60048036038101906103369190612d70565b611112565b005b61035760048036038101906103529190612a30565b611174565b60405161036491906129d8565b60405180910390f35b61038760048036038101906103829190612a30565b611352565b60405161039491906129d8565b60405180910390f35b6103b760048036038101906103b29190612df3565b611464565b6040516103c4919061292d565b60405180910390f35b60007f80ac58cd000000000000000000000000000000000000000000000000000000007bffffffffffffffffffffffffffffffffffffffffffffffffffffffff1916827bffffffffffffffffffffffffffffffffffffffffffffffffffffffff1916148061049857507f5b5e139f000000000000000000000000000000000000000000000000000000007bffffffffffffffffffffffffffffffffffffffffffffffffffffffff1916827bffffffffffffffffffffffffffffffffffffffffffffffffffffffff1916145b806104a857506104a782611591565b5b9050919050565b6060600080546104be90612e62565b80601f01602080910402602001604051908101604052809291908181526020018280546104ea90612e62565b80156105375780601f1061050c57610100808354040283529160200191610537565b820191906000526020600020905b81548152906001019060200180831161051a57829003601f168201915b5050505050905090565b600061054c826115fb565b6004600083815260200190815260200160002060009054906101000a900473ffffffffffffffffffffffffffffffffffffffff169050919050565b600061059282610ada565b90508073ffffffffffffffffffffffffffffffffffffffff168373ffffffffffffffffffffffffffffffffffffffff1603610602576040517f08c379a00000000000000000000000000000000000000000000000000000000081526004016105f990612f05565b60405180910390fd5b8073ffffffffffffffffffffffffffffffffffffffff16610621611646565b73ffffffffffffffffffffffffffffffffffffffff161480610650575061064f8161064a611646565b611464565b5b61068f576040517f08c379a000000000000000000000000000000000000000000000000000000000815260040161068690612f97565b60405180910390fd5b610699838361164e565b505050565b6106af6106a9611646565b82611707565b6106ee576040517f08c379a00000000000000000000000000000000000000000000000000000000081526004016106e590613029565b60405180910390fd5b6106f983838361179c565b505050565b6060600061073261070e84611a95565b60405160200161071e91906130d1565b604051602081830303815290604052611b63565b9050600b80549050816107459190613122565b905061082d6040518060400160405280601081526020017f666972737420776f726420257320256900000000000000000000000000000000815250600b838154811061079457610793613153565b5b9060005260206000200180546107a990612e62565b80601f01602080910402602001604051908101604052809291908181526020018280546107d590612e62565b80156108225780601f106107f757610100808354040283529160200191610822565b820191906000526020600020905b81548152906001019060200180831161080557829003601f168201915b505050505083611b9a565b600b818154811061084157610840613153565b5b90600052602060002001805461085690612e62565b80601f016020809104026020016040519081016040528092919081815260200182805461088290612e62565b80156108cf5780601f106108a4576101008083540402835291602001916108cf565b820191906000526020600020905b8154815290600101906020018083116108b257829003601f168201915b5050505050915050919050565b6108f783838360405180602001604052806000815250611112565b505050565b6060600061093061090c84611a95565b60405160200161091c91906131ce565b604051602081830303815290604052611b63565b9050600e80549050816109439190613122565b9050610a2b6040518060400160405280600b81526020017f636f6c6f72202573202569000000000000000000000000000000000000000000815250600e838154811061099257610991613153565b5b9060005260206000200180546109a790612e62565b80601f01602080910402602001604051908101604052809291908181526020018280546109d390612e62565b8015610a205780601f106109f557610100808354040283529160200191610a20565b820191906000526020600020905b815481529060010190602001808311610a0357829003601f168201915b505050505083611b9a565b600e8181548110610a3f57610a3e613153565b5b906000526020600020018054610a5490612e62565b80601f0160208091040260200160405190810160405280929190818152602001828054610a8090612e62565b8015610acd5780601f10610aa257610100808354040283529160200191610acd565b820191906000526020600020905b815481529060010190602001808311610ab057829003601f168201915b5050505050915050919050565b600080610ae683611c39565b9050600073ffffffffffffffffffffffffffffffffffffffff168173ffffffffffffffffffffffffffffffffffffffff1603610b57576040517f08c379a0000000000000000000000000000000000000000000000000000000008152600401610b4e9061323c565b60405180910390fd5b80915050919050565b60008073ffffffffffffffffffffffffffffffffffffffff168273ffffffffffffffffffffffffffffffffffffffff1603610bd0576040517f08c379a0000000000000000000000000000000000000000000000000000000008152600401610bc7906132ce565b60405180910390fd5b600360008373ffffffffffffffffffffffffffffffffffffffff1673ffffffffffffffffffffffffffffffffffffffff168152602001908152602001600020549050919050565b606060018054610c2690612e62565b80601f0160208091040260200160405190810160405280929190818152602001828054610c5290612e62565b8015610c9f5780601f10610c7457610100808354040283529160200191610c9f565b820191906000526020600020905b815481529060010190602001808311610c8257829003601f168201915b5050505050905090565b610cbb610cb4611646565b8383611c76565b5050565b6000610ccb6007611de2565b90506000610cd8826106fe565b90506000610ce583610f34565b90506000610cf284611174565b90506000610cff856108fc565b90506000610d0c866108fc565b90506000858585604051602001610d25939291906132ee565b60405160208183030381529060405290506000600884600985600a8b8b8b604051602001610d5a989796959493929190613403565b60405160208183030381529060405290506000610d9f83610d7a84611df0565b604051602001610d8b9291906135d6565b604051602081830303815290604052611df0565b9050600081604051602001610db49190613667565b6040516020818303038152906040529050610e036040518060400160405280601181526020017f3d3d3d2066696e616c20737667203d3d3d0000000000000000000000000000008152506114f8565b610e0c836114f8565b610e4a6040518060400160405280601c81526020017f3d3d3d206c696e6b20746f20737667206d65746164617461203d3d3d000000008152506114f8565b610e53816114f8565b610e916040518060400160405280601c81526020017f3d3d3d206c696e6b20746f20737667206d65746164617461203d3d3d000000008152506114f8565b610ed16040518060400160405280601f81526020017f546865204e46542077697468204944202569206d696e74656420746f202573008152508b33611f53565b610edb6007611ff2565b610ee5338b612008565b610eef8a82612026565b7febb98688741ffa4c7589bf325de30cf7becb63de567842e1ccdb6cb949fdc82c338b604051610f20929190613689565b60405180910390a150505050505050505050565b60606000610f68610f4484611a95565b604051602001610f5491906136fe565b604051602081830303815290604052611b63565b9050600c8054905081610f7b9190613122565b90506110636040518060400160405280601181526020017f7365636f6e6420776f7264202573202569000000000000000000000000000000815250600c8381548110610fca57610fc9613153565b5b906000526020600020018054610fdf90612e62565b80601f016020809104026020016040519081016040528092919081815260200182805461100b90612e62565b80156110585780601f1061102d57610100808354040283529160200191611058565b820191906000526020600020905b81548152906001019060200180831161103b57829003601f168201915b505050505083611b9a565b600c818154811061107757611076613153565b5b90600052602060002001805461108c90612e62565b80601f01602080910402602001604051908101604052809291908181526020018280546110b890612e62565b80156111055780601f106110da57610100808354040283529160200191611105565b820191906000526020600020905b8154815290600101906020018083116110e857829003601f168201915b5050505050915050919050565b61112361111d611646565b83611707565b611162576040517f08c379a000000000000000000000000000000000000000000000000000000000815260040161115990613029565b60405180910390fd5b61116e84848484612093565b50505050565b606060006111a861118484611a95565b604051602001611194919061376c565b604051602081830303815290604052611b63565b9050600d80549050816111bb9190613122565b90506112a36040518060400160405280601081526020017f746869726420776f726420257320256900000000000000000000000000000000815250600d838154811061120a57611209613153565b5b90600052602060002001805461121f90612e62565b80601f016020809104026020016040519081016040528092919081815260200182805461124b90612e62565b80156112985780601f1061126d57610100808354040283529160200191611298565b820191906000526020600020905b81548152906001019060200180831161127b57829003601f168201915b505050505083611b9a565b600d81815481106112b7576112b6613153565b5b9060005260206000200180546112cc90612e62565b80601f01602080910402602001604051908101604052809291908181526020018280546112f890612e62565b80156113455780601f1061131a57610100808354040283529160200191611345565b820191906000526020600020905b81548152906001019060200180831161132857829003601f168201915b5050505050915050919050565b606061135d826115fb565b600060066000848152602001908152602001600020805461137d90612e62565b80601f01602080910402602001604051908101604052809291908181526020018280546113a990612e62565b80156113f65780601f106113cb576101008083540402835291602001916113f6565b820191906000526020600020905b8154815290600101906020018083116113d957829003601f168201915b5050505050905060006114076120ef565b9050600081510361141c57819250505061145f565b60008251111561145157808260405160200161143992919061378e565b6040516020818303038152906040529250505061145f565b61145a84612106565b925050505b919050565b6000600560008473ffffffffffffffffffffffffffffffffffffffff1673ffffffffffffffffffffffffffffffffffffffff16815260200190815260200160002060008373ffffffffffffffffffffffffffffffffffffffff1673ffffffffffffffffffffffffffffffffffffffff16815260200190815260200160002060009054906101000a900460ff16905092915050565b61158e8160405160240161150c91906129d8565b6040516020818303038152906040527f41304fac000000000000000000000000000000000000000000000000000000007bffffffffffffffffffffffffffffffffffffffffffffffffffffffff19166020820180517bffffffffffffffffffffffffffffffffffffffffffffffffffffffff838183161783525050505061216e565b50565b60007f01ffc9a7000000000000000000000000000000000000000000000000000000007bffffffffffffffffffffffffffffffffffffffffffffffffffffffff1916827bffffffffffffffffffffffffffffffffffffffffffffffffffffffff1916149050919050565b61160481612197565b611643576040517f08c379a000000000000000000000000000000000000000000000000000000000815260040161163a9061323c565b60405180910390fd5b50565b600033905090565b816004600083815260200190815260200160002060006101000a81548173ffffffffffffffffffffffffffffffffffffffff021916908373ffffffffffffffffffffffffffffffffffffffff160217905550808273ffffffffffffffffffffffffffffffffffffffff166116c183610ada565b73ffffffffffffffffffffffffffffffffffffffff167f8c5be1e5ebec7d5bd14f71427d1e84f3dd0314c0f7b2291e5b200ac8c7c3b92560405160405180910390a45050565b60008061171383610ada565b90508073ffffffffffffffffffffffffffffffffffffffff168473ffffffffffffffffffffffffffffffffffffffff16148061175557506117548185611464565b5b8061179357508373ffffffffffffffffffffffffffffffffffffffff1661177b84610541565b73ffffffffffffffffffffffffffffffffffffffff16145b91505092915050565b8273ffffffffffffffffffffffffffffffffffffffff166117bc82610ada565b73ffffffffffffffffffffffffffffffffffffffff1614611812576040517f08c379a000000000000000000000000000000000000000000000000000000000815260040161180990613824565b60405180910390fd5b600073ffffffffffffffffffffffffffffffffffffffff168273ffffffffffffffffffffffffffffffffffffffff1603611881576040517f08c379a0000000000000000000000000000000000000000000000000000000008152600401611878906138b6565b60405180910390fd5b61188e83838360016121d8565b8273ffffffffffffffffffffffffffffffffffffffff166118ae82610ada565b73ffffffffffffffffffffffffffffffffffffffff1614611904576040517f08c379a00000000000000000000000000000000000000000000000000000000081526004016118fb90613824565b60405180910390fd5b6004600082815260200190815260200160002060006101000a81549073ffffffffffffffffffffffffffffffffffffffff02191690556001600360008573ffffffffffffffffffffffffffffffffffffffff1673ffffffffffffffffffffffffffffffffffffffff168152602001908152602001600020600082825403925050819055506001600360008473ffffffffffffffffffffffffffffffffffffffff1673ffffffffffffffffffffffffffffffffffffffff16815260200190815260200160002060008282540192505081905550816002600083815260200190815260200160002060006101000a81548173ffffffffffffffffffffffffffffffffffffffff021916908373ffffffffffffffffffffffffffffffffffffffff160217905550808273ffffffffffffffffffffffffffffffffffffffff168473ffffffffffffffffffffffffffffffffffffffff167fddf252ad1be2c89b69c2b068fc378daa952ba7f163c4a11628f55a4df523b3ef60405160405180910390a4611a9083838360016122fe565b505050565b606060006001611aa484612304565b01905060008167ffffffffffffffff811115611ac357611ac2612c45565b5b6040519080825280601f01601f191660200182016040528015611af55781602001600182028036833780820191505090505b509050600082602001820190505b600115611b58578080600190039150507f3031323334353637383961626364656600000000000000000000000000000000600a86061a8153600a8581611b4c57611b4b6130f3565b5b04945060008503611b03575b819350505050919050565b6000814244604051602001611b7a939291906138f7565b6040516020818303038152906040528051906020012060001c9050919050565b611c34838383604051602401611bb293929190613930565b6040516020818303038152906040527f5821efa1000000000000000000000000000000000000000000000000000000007bffffffffffffffffffffffffffffffffffffffffffffffffffffffff19166020820180517bffffffffffffffffffffffffffffffffffffffffffffffffffffffff838183161783525050505061216e565b505050565b60006002600083815260200190815260200160002060009054906101000a900473ffffffffffffffffffffffffffffffffffffffff169050919050565b8173ffffffffffffffffffffffffffffffffffffffff168373ffffffffffffffffffffffffffffffffffffffff1603611ce4576040517f08c379a0000000000000000000000000000000000000000000000000000000008152600401611cdb906139c1565b60405180910390fd5b80600560008573ffffffffffffffffffffffffffffffffffffffff1673ffffffffffffffffffffffffffffffffffffffff16815260200190815260200160002060008473ffffffffffffffffffffffffffffffffffffffff1673ffffffffffffffffffffffffffffffffffffffff16815260200190815260200160002060006101000a81548160ff0219169083151502179055508173ffffffffffffffffffffffffffffffffffffffff168373ffffffffffffffffffffffffffffffffffffffff167f17307eab39ab6107e8899845ad3d59bd9653f200f220920489ca2b5937696c3183604051611dd5919061292d565b60405180910390a3505050565b600081600001549050919050565b60606000825103611e1257604051806020016040528060008152509050611f4e565b60006040518060600160405280604081526020016140726040913990506000600360028551611e419190613a10565b611e4b9190613a44565b6004611e579190613a75565b67ffffffffffffffff811115611e7057611e6f612c45565b5b6040519080825280601f01601f191660200182016040528015611ea25781602001600182028036833780820191505090505b509050600182016020820185865187015b80821015611f0e576003820191508151603f8160121c168501518453600184019350603f81600c1c168501518453600184019350603f8160061c168501518453600184019350603f8116850151845360018401935050611eb3565b5050600386510660018114611f2a5760028114611f3d57611f45565b603d6001830353603d6002830353611f45565b603d60018303535b50505080925050505b919050565b611fed838383604051602401611f6b93929190613ab7565b6040516020818303038152906040527f1c7ec448000000000000000000000000000000000000000000000000000000007bffffffffffffffffffffffffffffffffffffffffffffffffffffffff19166020820180517bffffffffffffffffffffffffffffffffffffffffffffffffffffffff838183161783525050505061216e565b505050565b6001816000016000828254019250508190555050565b612022828260405180602001604052806000815250612457565b5050565b61202f82612197565b61206e576040517f08c379a000000000000000000000000000000000000000000000000000000000815260040161206590613b67565b60405180910390fd5b8060066000848152602001908152602001600020908161208e9190613d1e565b505050565b61209e84848461179c565b6120aa848484846124b2565b6120e9576040517f08c379a00000000000000000000000000000000000000000000000000000000081526004016120e090613e62565b60405180910390fd5b50505050565b606060405180602001604052806000815250905090565b6060612111826115fb565b600061211b6120ef565b9050600081511161213b5760405180602001604052806000815250612166565b8061214584611a95565b60405160200161215692919061378e565b6040516020818303038152906040525b915050919050565b60008151905060006a636f6e736f6c652e6c6f679050602083016000808483855afa5050505050565b60008073ffffffffffffffffffffffffffffffffffffffff166121b983611c39565b73ffffffffffffffffffffffffffffffffffffffff1614159050919050565b60018111156122f857600073ffffffffffffffffffffffffffffffffffffffff168473ffffffffffffffffffffffffffffffffffffffff161461226c5780600360008673ffffffffffffffffffffffffffffffffffffffff1673ffffffffffffffffffffffffffffffffffffffff16815260200190815260200160002060008282546122649190613e82565b925050819055505b600073ffffffffffffffffffffffffffffffffffffffff168373ffffffffffffffffffffffffffffffffffffffff16146122f75780600360008573ffffffffffffffffffffffffffffffffffffffff1673ffffffffffffffffffffffffffffffffffffffff16815260200190815260200160002060008282546122ef9190613a10565b925050819055505b5b50505050565b50505050565b600080600090507a184f03e93ff9f4daa797ed6e38ed64bf6a1f0100000000000000008310612362577a184f03e93ff9f4daa797ed6e38ed64bf6a1f0100000000000000008381612358576123576130f3565b5b0492506040810190505b6d04ee2d6d415b85acef8100000000831061239f576d04ee2d6d415b85acef81000000008381612395576123946130f3565b5b0492506020810190505b662386f26fc1000083106123ce57662386f26fc1000083816123c4576123c36130f3565b5b0492506010810190505b6305f5e10083106123f7576305f5e10083816123ed576123ec6130f3565b5b0492506008810190505b612710831061241c576127108381612412576124116130f3565b5b0492506004810190505b6064831061243f5760648381612435576124346130f3565b5b0492506002810190505b600a831061244e576001810190505b80915050919050565b6124618383612639565b61246e60008484846124b2565b6124ad576040517f08c379a00000000000000000000000000000000000000000000000000000000081526004016124a490613e62565b60405180910390fd5b505050565b60006124d38473ffffffffffffffffffffffffffffffffffffffff16612856565b1561262c578373ffffffffffffffffffffffffffffffffffffffff1663150b7a026124fc611646565b8786866040518563ffffffff1660e01b815260040161251e9493929190613f0b565b6020604051808303816000875af192505050801561255a57506040513d601f19601f820116820180604052508101906125579190613f6c565b60015b6125dc573d806000811461258a576040519150601f19603f3d011682016040523d82523d6000602084013e61258f565b606091505b5060008151036125d4576040517f08c379a00000000000000000000000000000000000000000000000000000000081526004016125cb90613e62565b60405180910390fd5b805181602001fd5b63150b7a0260e01b7bffffffffffffffffffffffffffffffffffffffffffffffffffffffff1916817bffffffffffffffffffffffffffffffffffffffffffffffffffffffff191614915050612631565b600190505b949350505050565b600073ffffffffffffffffffffffffffffffffffffffff168273ffffffffffffffffffffffffffffffffffffffff16036126a8576040517f08c379a000000000000000000000000000000000000000000000000000000000815260040161269f90613fe5565b60405180910390fd5b6126b181612197565b156126f1576040517f08c379a00000000000000000000000000000000000000000000000000000000081526004016126e890614051565b60405180910390fd5b6126ff6000838360016121d8565b61270881612197565b15612748576040517f08c379a000000000000000000000000000000000000000000000000000000000815260040161273f90614051565b60405180910390fd5b6001600360008473ffffffffffffffffffffffffffffffffffffffff1673ffffffffffffffffffffffffffffffffffffffff16815260200190815260200160002060008282540192505081905550816002600083815260200190815260200160002060006101000a81548173ffffffffffffffffffffffffffffffffffffffff021916908373ffffffffffffffffffffffffffffffffffffffff160217905550808273ffffffffffffffffffffffffffffffffffffffff16600073ffffffffffffffffffffffffffffffffffffffff167fddf252ad1be2c89b69c2b068fc378daa952ba7f163c4a11628f55a4df523b3ef60405160405180910390a46128526000838360016122fe565b5050565b6000808273ffffffffffffffffffffffffffffffffffffffff163b119050919050565b6000604051905090565b600080fd5b600080fd5b60007fffffffff0000000000000000000000000000000000000000000000000000000082169050919050565b6128c28161288d565b81146128cd57600080fd5b50565b6000813590506128df816128b9565b92915050565b6000602082840312156128fb576128fa612883565b5b6000612909848285016128d0565b91505092915050565b60008115159050919050565b61292781612912565b82525050565b6000602082019050612942600083018461291e565b92915050565b600081519050919050565b600082825260208201905092915050565b60005b83811015612982578082015181840152602081019050612967565b60008484015250505050565b6000601f19601f8301169050919050565b60006129aa82612948565b6129b48185612953565b93506129c4818560208601612964565b6129cd8161298e565b840191505092915050565b600060208201905081810360008301526129f2818461299f565b905092915050565b6000819050919050565b612a0d816129fa565b8114612a1857600080fd5b50565b600081359050612a2a81612a04565b92915050565b600060208284031215612a4657612a45612883565b5b6000612a5484828501612a1b565b91505092915050565b600073ffffffffffffffffffffffffffffffffffffffff82169050919050565b6000612a8882612a5d565b9050919050565b612a9881612a7d565b82525050565b6000602082019050612ab36000830184612a8f565b92915050565b612ac281612a7d565b8114612acd57600080fd5b50565b600081359050612adf81612ab9565b92915050565b60008060408385031215612afc57612afb612883565b5b6000612b0a85828601612ad0565b9250506020612b1b85828601612a1b565b9150509250929050565b600080600060608486031215612b3e57612b3d612883565b5b6000612b4c86828701612ad0565b9350506020612b5d86828701612ad0565b9250506040612b6e86828701612a1b565b9150509250925092565b600060208284031215612b8e57612b8d612883565b5b6000612b9c84828501612ad0565b91505092915050565b612bae816129fa565b82525050565b6000602082019050612bc96000830184612ba5565b92915050565b612bd881612912565b8114612be357600080fd5b50565b600081359050612bf581612bcf565b92915050565b60008060408385031215612c1257612c11612883565b5b6000612c2085828601612ad0565b9250506020612c3185828601612be6565b9150509250929050565b600080fd5b600080fd5b7f4e487b7100000000000000000000000000000000000000000000000000000000600052604160045260246000fd5b612c7d8261298e565b810181811067ffffffffffffffff82111715612c9c57612c9b612c45565b5b80604052505050565b6000612caf612879565b9050612cbb8282612c74565b919050565b600067ffffffffffffffff821115612cdb57612cda612c45565b5b612ce48261298e565b9050602081019050919050565b82818337600083830152505050565b6000612d13612d0e84612cc0565b612ca5565b905082815260208101848484011115612d2f57612d2e612c40565b5b612d3a848285612cf1565b509392505050565b600082601f830112612d5757612d56612c3b565b5b8135612d67848260208601612d00565b91505092915050565b60008060008060808587031215612d8a57612d89612883565b5b6000612d9887828801612ad0565b9450506020612da987828801612ad0565b9350506040612dba87828801612a1b565b925050606085013567ffffffffffffffff811115612ddb57612dda612888565b5b612de787828801612d42565b91505092959194509250565b60008060408385031215612e0a57612e09612883565b5b6000612e1885828601612ad0565b9250506020612e2985828601612ad0565b9150509250929050565b7f4e487b7100000000000000000000000000000000000000000000000000000000600052602260045260246000fd5b60006002820490506001821680612e7a57607f821691505b602082108103612e8d57612e8c612e33565b5b50919050565b7f4552433732313a20617070726f76616c20746f2063757272656e74206f776e6560008201527f7200000000000000000000000000000000000000000000000000000000000000602082015250565b6000612eef602183612953565b9150612efa82612e93565b604082019050919050565b60006020820190508181036000830152612f1e81612ee2565b9050919050565b7f4552433732313a20617070726f76652063616c6c6572206973206e6f7420746f60008201527f6b656e206f776e6572206f7220617070726f76656420666f7220616c6c000000602082015250565b6000612f81603d83612953565b9150612f8c82612f25565b604082019050919050565b60006020820190508181036000830152612fb081612f74565b9050919050565b7f4552433732313a2063616c6c6572206973206e6f7420746f6b656e206f776e6560008201527f72206f7220617070726f76656400000000000000000000000000000000000000602082015250565b6000613013602d83612953565b915061301e82612fb7565b604082019050919050565b6000602082019050818103600083015261304281613006565b9050919050565b600081905092915050565b7f46495253545f574f524400000000000000000000000000000000000000000000600082015250565b600061308a600a83613049565b915061309582613054565b600a82019050919050565b60006130ab82612948565b6130b58185613049565b93506130c5818560208601612964565b80840191505092915050565b60006130dc8261307d565b91506130e882846130a0565b915081905092915050565b7f4e487b7100000000000000000000000000000000000000000000000000000000600052601260045260246000fd5b600061312d826129fa565b9150613138836129fa565b925082613148576131476130f3565b5b828206905092915050565b7f4e487b7100000000000000000000000000000000000000000000000000000000600052603260045260246000fd5b7f434f4c4f52000000000000000000000000000000000000000000000000000000600082015250565b60006131b8600583613049565b91506131c382613182565b600582019050919050565b60006131d9826131ab565b91506131e582846130a0565b915081905092915050565b7f4552433732313a20696e76616c696420746f6b656e2049440000000000000000600082015250565b6000613226601883612953565b9150613231826131f0565b602082019050919050565b6000602082019050818103600083015261325581613219565b9050919050565b7f4552433732313a2061646472657373207a65726f206973206e6f74206120766160008201527f6c6964206f776e65720000000000000000000000000000000000000000000000602082015250565b60006132b8602983612953565b91506132c38261325c565b604082019050919050565b600060208201905081810360008301526132e7816132ab565b9050919050565b60006132fa82866130a0565b915061330682856130a0565b915061331282846130a0565b9150819050949350505050565b60008190508160005260206000209050919050565b6000815461334181612e62565b61334b8186613049565b94506001821660008114613366576001811461337b576133ae565b60ff19831686528115158202860193506133ae565b6133848561331f565b60005b838110156133a657815481890152600182019150602081019050613387565b838801955050505b50505092915050565b7f3c2f746578743e3c2f7376673e00000000000000000000000000000000000000600082015250565b60006133ed600d83613049565b91506133f8826133b7565b600d82019050919050565b600061340f828b613334565b915061341b828a6130a0565b91506134278289613334565b915061343382886130a0565b915061343f8287613334565b915061344b82866130a0565b915061345782856130a0565b915061346382846130a0565b915061346e826133e0565b91508190509998505050505050505050565b7f7b226e616d65223a202200000000000000000000000000000000000000000000600082015250565b60006134b6600a83613049565b91506134c182613480565b600a82019050919050565b7f222c226465736372697074696f6e223a20224120686967686c79206163636c6160008201527f696d656420636f6c6c656374696f6e206f66207371756172657320776974682060208201527f72616e646f6d206d657373616765732e222c2022696d616765223a202264617460408201527f613a696d6167652f7376672b786d6c3b6261736536342c000000000000000000606082015250565b6000613574607783613049565b915061357f826134cc565b607782019050919050565b7f227d000000000000000000000000000000000000000000000000000000000000600082015250565b60006135c0600283613049565b91506135cb8261358a565b600282019050919050565b60006135e1826134a9565b91506135ed82856130a0565b91506135f882613567565b915061360482846130a0565b915061360f826135b3565b91508190509392505050565b7f646174613a6170706c69636174696f6e2f6a736f6e3b6261736536342c000000600082015250565b6000613651601d83613049565b915061365c8261361b565b601d82019050919050565b600061367282613644565b915061367e82846130a0565b915081905092915050565b600060408201905061369e6000830185612a8f565b6136ab6020830184612ba5565b9392505050565b7f5345434f4e445f574f5244000000000000000000000000000000000000000000600082015250565b60006136e8600b83613049565b91506136f3826136b2565b600b82019050919050565b6000613709826136db565b915061371582846130a0565b915081905092915050565b7f54484952445f574f524400000000000000000000000000000000000000000000600082015250565b6000613756600a83613049565b915061376182613720565b600a82019050919050565b600061377782613749565b915061378382846130a0565b915081905092915050565b600061379a82856130a0565b91506137a682846130a0565b91508190509392505050565b7f4552433732313a207472616e736665722066726f6d20696e636f72726563742060008201527f6f776e6572000000000000000000000000000000000000000000000000000000602082015250565b600061380e602583612953565b9150613819826137b2565b604082019050919050565b6000602082019050818103600083015261383d81613801565b9050919050565b7f4552433732313a207472616e7366657220746f20746865207a65726f2061646460008201527f7265737300000000000000000000000000000000000000000000000000000000602082015250565b60006138a0602483612953565b91506138ab82613844565b604082019050919050565b600060208201905081810360008301526138cf81613893565b9050919050565b6000819050919050565b6138f16138ec826129fa565b6138d6565b82525050565b600061390382866130a0565b915061390f82856138e0565b60208201915061391f82846138e0565b602082019150819050949350505050565b6000606082019050818103600083015261394a818661299f565b9050818103602083015261395e818561299f565b905061396d6040830184612ba5565b949350505050565b7f4552433732313a20617070726f766520746f2063616c6c657200000000000000600082015250565b60006139ab601983612953565b91506139b682613975565b602082019050919050565b600060208201905081810360008301526139da8161399e565b9050919050565b7f4e487b7100000000000000000000000000000000000000000000000000000000600052601160045260246000fd5b6000613a1b826129fa565b9150613a26836129fa565b9250828201905080821115613a3e57613a3d6139e1565b5b92915050565b6000613a4f826129fa565b9150613a5a836129fa565b925082613a6a57613a696130f3565b5b828204905092915050565b6000613a80826129fa565b9150613a8b836129fa565b9250828202613a99816129fa565b91508282048414831517613ab057613aaf6139e1565b5b5092915050565b60006060820190508181036000830152613ad1818661299f565b9050613ae06020830185612ba5565b613aed6040830184612a8f565b949350505050565b7f45524337323155524953746f726167653a2055524920736574206f66206e6f6e60008201527f6578697374656e7420746f6b656e000000000000000000000000000000000000602082015250565b6000613b51602e83612953565b9150613b5c82613af5565b604082019050919050565b60006020820190508181036000830152613b8081613b44565b9050919050565b60006020601f8301049050919050565b600082821b905092915050565b600060088302613bd47fffffffffffffffffffffffffffffffffffffffffffffffffffffffffffffffff82613b97565b613bde8683613b97565b95508019841693508086168417925050509392505050565b6000819050919050565b6000613c1b613c16613c11846129fa565b613bf6565b6129fa565b9050919050565b6000819050919050565b613c3583613c00565b613c49613c4182613c22565b848454613ba4565b825550505050565b600090565b613c5e613c51565b613c69818484613c2c565b505050565b5b81811015613c8d57613c82600082613c56565b600181019050613c6f565b5050565b601f821115613cd257613ca38161331f565b613cac84613b87565b81016020851015613cbb578190505b613ccf613cc785613b87565b830182613c6e565b50505b505050565b600082821c905092915050565b6000613cf560001984600802613cd7565b1980831691505092915050565b6000613d0e8383613ce4565b9150826002028217905092915050565b613d2782612948565b67ffffffffffffffff811115613d4057613d3f612c45565b5b613d4a8254612e62565b613d55828285613c91565b600060209050601f831160018114613d885760008415613d76578287015190505b613d808582613d02565b865550613de8565b601f198416613d968661331f565b60005b82811015613dbe57848901518255600182019150602085019450602081019050613d99565b86831015613ddb5784890151613dd7601f891682613ce4565b8355505b6001600288020188555050505b505050505050565b7f4552433732313a207472616e7366657220746f206e6f6e20455243373231526560008201527f63656976657220696d706c656d656e7465720000000000000000000000000000602082015250565b6000613e4c603283612953565b9150613e5782613df0565b604082019050919050565b60006020820190508181036000830152613e7b81613e3f565b9050919050565b6000613e8d826129fa565b9150613e98836129fa565b9250828203905081811115613eb057613eaf6139e1565b5b92915050565b600081519050919050565b600082825260208201905092915050565b6000613edd82613eb6565b613ee78185613ec1565b9350613ef7818560208601612964565b613f008161298e565b840191505092915050565b6000608082019050613f206000830187612a8f565b613f2d6020830186612a8f565b613f3a6040830185612ba5565b8181036060830152613f4c8184613ed2565b905095945050505050565b600081519050613f66816128b9565b92915050565b600060208284031215613f8257613f81612883565b5b6000613f9084828501613f57565b91505092915050565b7f4552433732313a206d696e7420746f20746865207a65726f2061646472657373600082015250565b6000613fcf602083612953565b9150613fda82613f99565b602082019050919050565b60006020820190508181036000830152613ffe81613fc2565b9050919050565b7f4552433732313a20746f6b656e20616c7265616479206d696e74656400000000600082015250565b600061403b601c83612953565b915061404682614005565b602082019050919050565b6000602082019050818103600083015261406a8161402e565b905091905056fe4142434445464748494a4b4c4d4e4f505152535455565758595a6162636465666768696a6b6c6d6e6f707172737475767778797a303132333435363738392b2fa2646970667358221220929989dcf02a6dc0c4aaec58546f776603b2b95ad4a21e933d3915318198b4fe64736f6c634300081100333c73766720786d6c6e733d22687474703a2f2f7777772e77332e6f72672f323030302f737667222076657273696f6e3d22312e312220786d6c6e733a786c696e6b3d22687474703a2f2f7777772e77332e6f72672f313939392f786c696e6b2220786d6c6e733a7376676a733d22687474703a2f2f7376676a732e6465762f7376676a73222076696577426f783d223020302037303020373030222077696474683d2237303022206865696768743d22373030223e3c646566733e3c6c696e6561724772616469656e74206772616469656e745472616e73666f726d3d22726f74617465283135302c20302e352c20302e3529222078313d22353025222079313d223025222078323d22353025222079323d2231303025222069643d226666666c75782d6772616469656e74223e3c73746f702073746f702d636f6c6f723d22222073746f702d6f7061636974793d223122206f66667365743d2231303025223e3c2f73746f703e3c2f6c696e6561724772616469656e743e3c66696c7465722069643d226666666c75782d66696c7465722220783d222d3230252220793d222d323025222077696474683d223134302522206865696768743d2231343025222066696c746572556e6974733d226f626a656374426f756e64696e67426f7822207072696d6974697665556e6974733d227573657253706163654f6e5573652220636f6c6f722d696e746572706f6c6174696f6e2d66696c746572733d2273524742223e3c666554757262756c656e636520747970653d226672616374616c4e6f6973652220626173654672657175656e63793d22302e30303520302e30303322206e756d4f6374617665733d22322220736565643d2232222073746974636854696c65733d227374697463682220783d2230252220793d223025222077696474683d223130302522206865696768743d22313030252220726573756c743d2274757262756c656e6365223e3c2f666554757262756c656e63653e3c6665476175737369616e426c757220737464446576696174696f6e3d22323020302220783d2230252220793d223025222077696474683d223130302522206865696768743d22313030252220696e3d2274757262756c656e63652220656467654d6f64653d226475706c69636174652220726573756c743d22626c7572223e3c2f6665476175737369616e426c75723e3c6665426c656e64206d6f64653d22636f6c6f722d646f6467652220783d2230252220793d223025222077696474683d223130302522206865696768743d22313030252220696e3d22536f75726365477261706869632220696e323d22626c75722220726573756c743d22626c656e64223e3c2f6665426c656e643e3c7374796c653e2e62617365207b2066696c6c3a206d69646e69676874626c75653b20666f6e742d66616d696c793a206d6f6e6f73706163653b20666f6e742d73697a653a20333270783b20666f6e742d7765696768743a20626f6c64207d3c2f7374796c653e3c2f66696c7465723e3c2f646566733e3c726563742077696474683d2237303022206865696768743d22373030222066696c6c3d2275726c28236666666c75782d6772616469656e7429222066696c7465723d2275726c28236666666c75782d66696c74657229223e3c2f726563743e3c7465787420783d223530252220793d223530252220636c6173733d22626173652220646f6d696e616e742d626173656c696e653d226d6964646c652220746578742d616e63686f723d226d6964646c65223e222073746f702d6f7061636974793d223122206f66667365743d223025223e3c2f73746f703e3c73746f702073746f702d636f6c6f723d22",
    "linkReferences": {},
    "deployedLinkReferences": {}
}